S015000074726166666963206C696768742E73726563F8
S11300000C942A000C94B6010C9447000C944700FD
S11300100C9447000C9447000C9447000C94470040
S11300200C9447000C9447000C9447000C94470030
S11300300C9447000C9447000C9447000C94470020
S11300400C9447000C9447000C9447000C94470010
S11300500C94470011241FBECFE5D8E0DEBFCDBF0E
S113006010E0A0E6B0E0E8EDFAE002C005900D92E1
S1130070A236B107D9F720E0A2E6B0E001C01D9294
S1130080A336B207E1F70E9448030C946A050C9466
S1130090000060E081E40E94C60161E081E40E9406
S11300A0C60162E081E40E94C60160E082E40E942D
S11300B0C60161E082E40E94C60162E082E40E941B
S11300C0C60162E084E40E94C2010E94D2017894D5
S11300D085B7836085BF8BB780648BBF0895CF934A
S11300E080916000811107C090916200992319F0FA
S11300F0913009F0DDC0811103C081E0809362007A
S113010060E082E40E94CE0161E082E40E94CE01BC
S113011080916200813021F120F0823009F4A1C085
S1130120C0C060E081E40E94CA0161E081E40E94F1
S1130130CE0162E081E40E94CE01C0E009C084E403
S113014090E00E94D40180916000882319F0CF5F71
S1130150C233A8F381E0809362001092610004C16D
S11301608091600081115EC080916100823069F1EC
S113017062E082E40E94CA01C0E025C061E081E43B
S11301800E94CA0161E082E40E94CA0186E891E00B
S11301900E94D40161E081E40E94CE0161E082E426
S11301A00E94CE018EEB90E00E94D40161E081E4D4
S11301B00E94CA0161E082E40E94CA0186E891E0DB
S11301C00E94D401CF5FC530C8F281E08093610002
S11301D082E08093620062E081E40E94CA0125C04B
S11301E061E081E40E94CA018CE791E00E94D4019D
S11301F061E081E40E94CE0184EB90E00E94D4018E
S113020061E081E40E94CA018CE791E00E94D4017C
S113021080916000811104C081E08093610005C079
S1130220CF5F01C0C0E0C530D8F261E081E40E9434
S1130230CE0161E082E40E94CE01809161008111CF
S113024007C082E08093620081E0809361008CC0EB
S1130250823009F089C01092620081E080936100CD
S113026083C060E081E40E94CE0161E081E40E94E9
S1130270CE0162E081E40E94CA01C0E009C084E4C6
S113028090E00E94D40180916000882319F0CF5F30
S1130290C233A8F382E08093610081E0809362001E
S11302A063C082E08093620081E0809361005CC05F
S11302B060E082E40E94CA0161E082E40E94CE010F
S11302C062E082E40E94CE0160E081E40E94CE01FB
S11302D061E081E40E94CE0162E081E40E94CA01EF
S11302E088E893E10E94D40162E081E40E94CE0197
S11302F0C0E025C061E081E40E94CA0161E082E4BB
S11303000E94CA0186E891E00E94D40161E081E480
S11303100E94CE0161E082E40E94CE018EEB90E067
S11303200E94D40161E081E40E94CA0161E082E498
S11303300E94CA0186E891E00E94D401CF5FC530D3
S1130340C8F261E081E40E94CE0161E082E40E948F
S1130350CE0162E082E40E94CA0181E080936000E1
S11303601092620080936100CF9108951F920F92C2
S11303700FB60F921124109260000F900FBE0F90D1
S11303801F90189540E00E945402089541E00E9495
S11303905402089541E00E94CE02089540E00E9474
S11303A0CE02089513BE08958F929F92AF92BF928A
S11303B0CF92DF92EF92FF92CF93DF93EC01BC01D7
S11303C080E090E00E9477046B017C012FE632E12B
S11303D043E852E40E94D10388239CF4A7019601C8
S11303E06FE672E183E892E40E944D032FE632E166
S11303F043E85EE30E94D6030E944804C1E0D0E0D3
S113040035C0C134D10579F12FE632E143E852E435
S1130410C701B6010E94D6030E94BA030E94480491
S11304204B015C01EB012FE632E143E85EE3C701D7
S1130430B6010E94D6036B017C01B40180E090E018
S11304400E9477049B01AC01C701B6010E94D60348
S11304509B01AC0160E070E080E893E40E944D03EE
S11304600E94480403C060E0C1E0D0E062BF83B7EB
S1130470846083BF20E030E008C008B600FEFDCFF2
S113048088B7816088BF2F5F3F4F2C173D07A8F3C3
S113049013BEDF91CF91FF90EF90DF90CF90BF908C
S11304A0AF909F908F900895823431F118F4813485
S11304B039F008958334E1F1843409F454C0089583
S11304C041110CC02AB381E090E002C0880F991F4B
S11304D06A95E2F7809582238ABB0895413009F03A
S11304E05CC02AB381E090E002C0880F991F6A952E
S11304F0E2F7822B8ABB089541110CC027B381E037
S113050090E002C0880F991F6A95E2F780958223D4
S113051087BB0895413009F040C027B381E090E0E3
S113052002C0880F991F6A95E2F7822B87BB089552
S113053041110CC024B381E090E002C0880F991FE0
S11305406A95E2F78095822384BB0895413029F5AA
S113055024B381E090E002C0880F991F6A95E2F706
S1130560822B84BB089541110CC021B381E090E03B
S113057002C0880F991F6A95E2F78095822381BB98
S11305800895413051F421B381E090E002C0880F16
S1130590991F6A95E2F7822B81BB0895823431F169
S11305A018F4813439F008958334E1F1843409F482
S11305B054C0089541110CC02BB381E090E002C0F7
S11305C0880F991F6A95E2F7809582238BBB089563
S11305D0413009F05CC02BB381E090E002C0880F89
S11305E0991F6A95E2F7822B8BBB089541110CC0C9
S11305F028B381E090E002C0880F991F6A95E2F762
S11306008095822388BB0895413009F040C028B307
S113061081E090E002C0880F991F6A95E2F7822B6F
S113062088BB089541110CC025B381E090E002C05D
S1130630880F991F6A95E2F78095822385BB0895F8
S1130640413029F525B381E090E002C0880F991F5D
S11306506A95E2F7822B85BB089541110CC022B341
S113066081E090E002C0880F991F6A95E2F78095B7
S1130670822382BB0895413051F422B381E090E09B
S113068002C0880F991F6A95E2F7822B82BB0895F6
S11306900E9449000E946F00FDCF5058BB27AA2733
S11306A00E9465030C9418050E940A0538F00E9404
S11306B0110520F039F49F3F19F426F40C94070532
S11306C00EF4E095E7FB0C94D804E92F0E94290569
S11306D058F3BA17620773078407950720F079F473
S11306E0A6F50C9463050EF4E0950B2EBA2FA02DFD
S11306F00B01B90190010C01CA01A0011124FF27CB
S1130700591B99F0593F50F4503E68F11A16F040C5
S1130710A22F232F342F4427585FF3CF46953795C4
S11307202795A795F0405395C9F77EF41F16BA0B89
S1130730620B730B840BBAF09150A1F0FF0FBB1F37
S1130740661F771F881FC2F70EC0BA0F621F731F80
S1130750841F48F4879577956795B795F7959E3FDD
S113076008F0B0CF9395880F08F09927EE0F97956E
S1130770879508950E944B0590F09F3748F4911196
S113078016F40C94640560E070E080E89FE308953B
S113079026F01B16611D711D811D0C94DE040C9442
S11307A0F9040E94B40408F481E008950E94EA0365
S11307B00C9418050E94110558F00E940A0540F097
S11307C029F45F3F29F00C94D80451110C9464056A
S11307D00C9407050E94290568F39923B1F3552366
S11307E091F3951B550BBB27AA2762177307840740
S11307F038F09F5F5F4F220F331F441FAA1FA9F3D6
S113080035D00E2E3AF0E0E832D091505040E695C3
S1130810001CCAF72BD0FE2F29D0660F771F881F24
S1130820BB1F261737074807AB07B0E809F0BB0B17
S1130830802DBF01FF2793585F4F3AF09E3F51052B
S113084078F00C94D8040C9464055F3FE4F3983E6C
S1130850D4F3869577956795B795F7959F5FC9F714
S1130860880F911D9695879597F90895E1E0660F95
S1130870771F881FBB1F621773078407BA0720F00E
S1130880621B730B840BBA0BEE1F88F7E095089577
S11308900E94310588F09F5798F0B92F9927B751D6
S11308A0B0F0E1F0660F771F881F991F1AF0BA9510
S11308B0C9F714C0B13091F00E946305B1E0089506
S11308C00C946305672F782F8827B85F39F0B93FF8
S11308D0CCF3869577956795B395D9F73EF49095C3
S11308E08095709561957F4F8F4F9F4F0895E89441
S11308F009C097FB3EF490958095709561957F4F64
S11309008F4F9F4F9923A9F0F92F96E9BB27939511
S1130910F695879577956795B795F111F8CFFAF421
S1130920BB0F11F460FF1BC06F5F7F4F8F4F9F4F52
S113093016C0882311F096E911C0772321F09EE8B0
S1130940872F762F05C0662371F096E8862F70E016
S113095060E02AF09A95660F771F881FDAF7880FF0
S11309609695879597F90895990F0008550FAA0B46
S1130970E0E8FEEF16161706E807F907C0F01216AE
S11309801306E407F50798F0621B730B840B950BB1
S113099039F40A2661F0232B242B252B21F4089506
S11309A00A2609F4A140A6958FEF811D811D0895A3
S11309B097F99F6780E870E060E00895882371F4F8
S11309C0772321F09850872B762F07C0662311F4E4
S11309D099270DC09051862B70E060E02AF09A951B
S11309E0660F771F881FDAF7880F9695879597F912
S11309F008959F3F31F0915020F48795779567953E
S1130A00B795880F911D9695879597F908959FEF4F
S1130A1080EC089500240A94161617061806090691
S1130A20089500240A941216130614060506089560
S1130A30092E0394000C11F4882352F0BB0F40F4E8
S1130A40BF2B11F460FF04C06F5F7F4F8F4F9F4F28
S1130A50089557FD9058440F551F59F05F3F71F0AA
S1130A604795880F97FB991F61F09F3F79F0879511
S1130A700895121613061406551FF2CF4695F1DF9A
S1130A8008C0161617061806991FF1CF869571052A
S1130A906105089408950E943105A0F0BEE7B917D6
S1130AA088F4BB279F3860F41616B11D672F782F82
S1130AB08827985FF7CF869577956795B11D9395AD
S1130AC09639C8F30895E894BB2766277727CB01A6
S10B0AD097F90895F894FFCF93
S1050AD8010116
S9030000FC
